:020000021000EC
:10B0000000800020051602004516020047160200C7
:10B010000000000000000000000000000000000030
:10B0200000000000000000000000000049160200BF
:10B0300000000000000000004B1602004D16020048
:10B040004F1602004F16020011CC010069D2010018
:10B050004F1602000000000095CA010021DB01002C
:10B060004F1602004F1602004F1602004F16020044
:10B070004F1602004F1602004F1602004F16020034
:10B080004F16020035B301004F1602004F160200A2
:10B09000F1B301004F160200512002004F160200CA
:10B0A0004F1602004F1602000000000000000000D2
:10B0B0000000000000000000000000000000000090
:10B0C00010B5064C2378002B07D1054B002B02D07E
:10B0D000044800E000BF0123237010BD9820002029
:10B0E00000000000203B0200044B10B5002B03D0F1
:10B0F0000349044800E000BF10BDC0460000000046
:10B100009C200020203B0200164B002B00D1144B4A
:10B110009D46402292029A1A924600218B460F4683
:10B120001348144A121A00F065F80F4B002B00D098
:10B1300098470E4B002B00D09847002000210400B8
:10B140000D000D48002802D00C4800E000BF00F0C0
:10B150002DF82000290002F0C9FE00F011F8C046C9
:10B160000000080000800020000000000000000037
:10B1700098200020A82A0020000000000000000005
:10B18000084B10B50400002B02D0002100E000BFE6
:10B19000054B1868836A002B00D09847200000F008
:10B1A00031F8C04600000000103A020070B50026D9
:10B1B0000C4D0D4C641BA410A64209D1002608F0CA
:10B1C0001BFC0A4D0A4C641BA410A64205D170BD9D
:10B1D000B300EB5898470136EEE7B300EB589847B9
:10B1E0000136F2E78020002080200020802000200F
:10B1F0008420002003001218934200D17047197078
:10B200000133F9E7FEE7C0461FB5002101AA9060AF
:10B2100003481180516000F005F805B000BDC0463C
:10B2200001400000BFF34F8F034B044ADA60BFF3C5
:10B230004F8FC046FDE7C04600ED00E00400FA0570
:10B2400030B509494C788A78631CDBB29A4200D148
:10B2500000230D7800229D4204D003701820604323
:10B260004A681218100030BDB8200020F0B5002741
:10B2700085B002ABDD1D0090280001912F7000F019
:10B280003BFB02AB9E1D3000FFF7DAFF0424B842FF
:10B2900007D03C00019B0370009B32784360074B52
:10B2A0005A70287800F046FB002C03D18022044B12
:10B2B00052035A60200005B0F0BDC046B8200020FF
:10B2C000FCE100E0084B09491A682F23C046C0463C
:10B2D000C046C046C046C046C046C0468A4200D0AE
:10B2E000C046013BF2D170477C2000200024F400CE
:10B2F00080220C4B920270B5DA678023D22201259E
:10B30000094C5B029200A350403AA3506560FFF7DE
:10B31000D9FFA5600024054B1C60FFF7D3FF044B49
:10B320001C7070BD04E100E000100140D02000203E
:10B33000C1200020F8B50024234B5C649C64DC64CD
:10B340001C655C609C60214B1B68A34233D0204A83
:10B3500020498D58204A1268AD1A2D022D0A1A680C
:10B36000AA4215D8AD1AA4181A7CDE69002A0DD09D
:10B3700000221A74194A996917685A69002F1DD05A
:10B380001000B847002801D0FFF73EFF002E13D170
:10B39000134A144B11781B788B4204D10133DBB272
:10B3A000022B0ED0137013780F4A9B009C50802202
:10B3B0000E4B52035A60F8BD3300D0E708009047A7
:10B3C000E4E70023EEE7C046FC100140D420002053
:10B3D0000405000000100140D0200020B42000200F
:10B3E000CD200020CC200020C4200020FCE100E083
:10B3F000F0B5C149C14A0B68C1488BB003931478BA
:10B40000037800229C4200D1BAE00133DBB2022B68
:10B4100000D1B3E003700378BA4A9B009A58039BAB
:10B420009B181B021B0A0B600123019300250124BA
:10B43000B54B19780091B549096805915978029181
:10B44000596806919B7800990793AB4B09951B6847
:10B450000493AF4B1B780893059B0298814200D060
:10B4600090E00999002905D0A94908980870A249D7
:10B4700004980860A549002D00D00B600B68019965
:10B48000002900D0C6E0059A0024D31A5A1E934121
:10B49000DBB201939D4B01261B6804939C4B049ADD
:10B4A0001B780593944B1B68099300231D0003939D
:10B4B000002C00D0B3E0029B00998B4200D0CCE07E
:10B4C000002D02D0904B0299197003998F4B0029DF
:10B4D00000D01A601B68049A9A4202D1019A002A8D
:10B4E00047D0002B00D104E11B688A4A03938A4CA1
:10B4F000814BA5581B68894E0093EB1A1B021B0A4F
:10B500000333019333780292002B12D18023C13A86
:10B510005B02FF3AA350403AA350C021802201278A
:10B520007F4B920249005A501A602760FFF7CAFE0B
:10B530003770039B019A934200D21300A821009A0E
:10B54000C9009B181B021B0A6350029AA258521B87
:10B550001202120A5D1B2D0203322D0AAA4208D9DB
:10B56000029BE3586350FFF7ADFE80226D4B9202C1
:10B570005A600022664B1A700BB0F0BD02704AE7A9
:10B58000019253E718204843069E01313018079E68
:10B59000C9B2B14200D100210678022E0AD0032E92
:10B5A00000D05AE7002B00D157E70020250018747F
:10B5B000DB69F7E740681E0084461800002800D1C8
:10B5C0004BE7844500D1B1E00600C069F6E71D688D
:10B5D000954206D9002901D04C490B60AA1A1A607D
:10B5E00058E7521B4019DD681E60DF69002D07D047
:10B5F000DC611C0003999D6009180902090A596061
:10B600003B000199002BE2D1002900D142E73F4ADB
:10B6100013603FE700210C0008000E00F2E7230052
:10B62000E469596809980891081A3F490002000A1C
:10B630009F6888423AD8C019186000211E7459606A
:10B640009960D9618A4206D01868116888424DD83D
:10B65000081A1060DA61039646E01821009B5943EE
:10B66000069B5918009B0133DBB200930098079B9F
:10B67000834201D1002300930B783500012B00D0C9
:10B6800019E74B681D7C002D00D014E788685860CE
:10B69000C86898600869D860496999610599002966
:10B6A00002D05D600D00BCE73500BAE70999089843
:10B6B000091A0902090AB94202D27F1A1F60BCE7BF
:10B6C00000211960B9E7C01BCF698C46002F07D055
:10B6D00039000F688742F6D33F1A0F600F006146AA
:10B6E0001860DF61CB6113001A00E1E69446110097
:10B6F000EFE7FFF7FDFD3CE7D0200020CD20002044
:10B70000CC200020C4200020B8200020D42000201D
:10B71000C02000200405000000100140C1200020CE
:10B7200000E100E0FCE100E0FEFF7F00B04209D153
:10B73000DB692500002B05D1084DAC602500049382
:10B74000099408940768C069BC46F061002800D1DC
:10B7500083E60668664406607FE6C0460010014046
:10B76000F7B5032401900E0015001F00144032D1DC
:10B77000002A30D0FFF7BCFD184B80201F60184B0B
:10B78000C0225D60C525FF211C809E70154B4003C3
:10B790001C60154B52001C70144BAD001C70144BF8
:10B7A00098505A598A431100C0220A435A51A12283
:10B7B000186001990F48D2008150043D5A590E4932
:10B7C0001140C02212020A435A510C4BC2580C4B72
:10B7D0001A602000FEBD0724FBE7C046B42000200D
:10B7E000B8200020D4200020CC200020CD20002034
:10B7F00000E100E000100140FF00FFFF0405000031
:10B80000D020002010B50A4B5C680823002C0CD017
:10B81000013B002A09D0002807D000680133047CCE
:10B82000002C02D1230041744261180010BDC046B3
:10B83000B8200020F0B5214F87B07B68050001914A
:10B8400003920824002B35D0002833D0013C042972
:10B8500030D943690134002B2CD0427C0023029163
:10B86000012A00D0029304AAD61D3000337000F0E4
:10B8700043F804AB981DFFF7E3FC0424002810D024
:10B880000123002403700E4A0E4B4560D358836099
:10B89000019BC360029B0361039B436104AB9B79E3
:10B8A0007B70307800F046F8002C03D18022064BE4
:10B8B00052035A60200007B0F0BDC046B8200020F7
:10B8C0000010014004050000FCE100E010B5094B48
:10B8D0005A680823002A0AD0002808D04269002AA2
:10B8E00005D0002302210374FFF7C0FC03001800F9
:10B8F00010BDC046B820002070B5EFF3108672B6B8
:10B90000094B0122596800290BD1084C5A60E26F9B
:10B91000074D2A401A60E5670170002E00D162B61B
:10B9200070BD0270F9E7C046742A002004E100E00F
:10B93000FC06FFBC10B5084B5A68002A0BD0002843
:10B9400009D1EFF3108272B604491C680C6058608C
:10B95000002A00D162B610BD742A002000E100E088
:10B9600070B505000024054BA200D358002B01D070
:10B97000280098470134082CF5D170BDE420002040
:10B98000033082B230B50920FD2A1DD80F4B18783C
:10B99000002806D11C895D8964191419A4B2FF2CF2
:10B9A0000BD91C7C0720002C0ED11C8B5D8B6419DD
:10B9B0001419A4B2FF2C07D80638040108801B19FB
:10B9C0005889121800205A8130BDC046DC21002061
:10B9D00010B50D4C0D4963880D481B01C9188B89A2
:10B9E000002B06D10122496800F0A4FE0423237035
:10B9F00010BD052307492370033B8B8001220023E0
:10BA0000096800F097FEF3E750210020DC210020B8
:10BA100088200020FC210020002307B50449009362
:10BA2000044A02330968044800F03EFE0EBDC046D9
:10BA3000FC210020203A020088200020002307B5C6
:10BA400001000093024A0233024800F02DFE0EBDB1
:10BA5000183A020088200020002313B5094A0093F9
:10BA60000C0001330100084800F01EFE0E230028E0
:10BA700005D1064924010D3B09198B7303001800F9
:10BA800016BDC046143A020088200020DC210020A8
:10BA900013B50324084B0948998842681B6889003C
:10BAA0005918538804700020033300909BB2044857
:10BAB00000F0FAFD16BDC046FC21002050210020F8
:10BAC0008820002010B5030112480C68C018406897
:10BAD00003000833002C03D0638803339B00E31872
:10BAE00080220D4CD2008018984202D91A68013287
:10BAF00001D1002007E09A88A24205D01A88002AC6
:10BB000002D001200B6010BD5A88033292009B18AE
:10BB1000EAE7C046DC210020FFFF000037B543689C
:10BB200004000D00002B2DD0244A11688B4229D32C
:10BB30005268934226D80320184023D1204A2189F5
:10BB4000128991421ED1226899688A421AD11D49F0
:10BB50004A68934204D98024E400121993420DD319
:10BB60004A6993420CD98021C9005218934207D2E6
:10BB700001232B8043425841C0B23EBD0300F8E789
:10BB80000A20F7E700232B8000230193288801A9CE
:10BB9000FFF798FF002806D12B8801339BB22B803A
:10BBA000012BF1D9E9E7019B21689A688A42EDD11E
:10BBB0006360034B1B892381DFE7C0468820002098
:10BBC00050210020DC210020F8B51C001C4B150082
:10BBD0001A78022306000F0018001A4204D003301E
:10BBE000002D01D0002C0FD1F8BD164A1B019B5C23
:10BBF000002B06D1A0882100FFF764FF002808D1A0
:10BC00002060A3880133A380A388012BEDD90A20EB
:10BC1000EAE72368002E03D0998832889142E9D15F
:10BC2000002F03D019883A889142E3D19B68002005
:10BC30002B6023686B60044B1B892B81D4E7C046C3
:10BC40004C210020DC2100205021002010B5064BA3
:10BC5000191D5888FFF736FF002802D0FFF718FF9C
:10BC600010BDFFF7B5FEFBE7502100201C23F0B507
:10BC70001C00B04D07002E6F8BB07443605D01381F
:10BC8000052800D954E106F02BFA06008200820054
:10BC900044014401AA01002F16D00124A64A1378BA
:10BCA000A34313701C227243A24B0694D15C023949
:10BCB00001293AD89B189A7DA04B196C89181964F0
:10BCC000596C8A1A5A6430E02D19287903281CD837
:10BCD00006F0FCF90B023C47994D2B78022B09D05A
:10BCE0002B7C022B18D1012405E0FFF795FE0123E0
:10BCF0002B7107E0002424012B195868FFF79EFEE2
:10BD000000232B55002800D19BE001218A4A0E24F4
:10BD100013788B431370C5E70223874A11780B43CE
:10BD200001218B431370002306931C237343814C22
:10BD3000185D05AB0138052800D9EFE106F0D0F910
:10BD4000CF01D201DE01080211021B027D4C00234B
:10BD5000012221687C4800F0EDFC0223A38000232F
:10BD6000C6E7784C2068FFF769FE784B27685A8849
:10BD7000734B12019C469B1859685F60A78821602D
:10BD80001F8102236146A38000235354B0E773430D
:10BD9000EB185A8A120102920299694A52181189C3
:10BDA000002F0BD0D88803235B42C71C181A538975
:10BDB000C9191B1811815381012473E75768187C36
:10BDC00089007F18062800D9A1E006F07FF9297DB7
:10BDD0003C541B9004005E4C1C227243554B9B1834
:10BDE000D888029A564B9B181989C21C89180322BD
:10BDF000198152425989121A52185A81544B9C4245
:10BE000091D04FE700235348534943601C33734399
:10BE1000EB189B690360FFF781FE002800D15CE10D
:10BE20000023221DAA18009339000133464800F070
:10BE30003BFC1C2202237243AD182B740E240028F5
:10BE4000CAD10BB0F0BD2200002339000C32AA1871
:10BE5000083100933C48013300F026FC1C231A00F3
:10BE60007243AA18917D0322002900D1023A73433C
:10BE7000ED182A74E2E7314A536C002B00D182E1BD
:10BE80000724106C013B411C21401534744311649C
:10BE90002849C0000C19A18A536489007918002729
:10BEA0001518AB8800978258274800F0FDFBA38A3D
:10BEB000AA889B18A382A37D013BDBB2A375BB427A
:10BEC000BCD101232374B9E7220000230832AA1849
:10BED000391D00931C48013300F0E6FB1C2272431D
:10BEE000AB5CAD18033B591E8B410533A5E71A4BDC
:10BEF0001988184B5868FFF7AFFD04001C20062373
:10BF000070432D182B74002C00D065E799E70F249F
:10BF100062E7002F00D04FE71C237343EB18029316
:10BF20001B79012B40D0002B18D0022B00D1FAE650
:10BF30000F24B7E6642100204C21002004210020BA
:10BF4000DC210020FC21002088200020502100203E
:10BF50001D1D0000D82000200422002039000A27DF
:10BF6000082206A8FFF746F9029B05A8DB680A2409
:10BF70000393059302ABFF183900FFF7CFFD0028AC
:10BF800009D00698029A83883988D3800388138160
:10BF9000FFF762FD04001C20022370432D182B7153
:10BFA000002C00D14DE729E7A01D2818774B05AAE2
:10BFB0003900FFF709FE041E08D1744B06989988D2
:10BFC000FFF74AFD04000A28EAD1ACE6082239004E
:10BFD0006E48FFF70FF90A2C00D1A4E60EE7002FF8
:10BFE00000D0E9E66A4B1A7B002A0AD01F73187842
:10BFF000013806289CD806F05FF8394E5D609B63D7
:10C000006B0018780728F2D806F056F804F1F115FD
:10C010001F2E2E131A895F4901321A8100225A807D
:10C020001A730A78504242419A720A7C51424A413C
:10C03000DA72012207E058485A6881885288033131
:10C040005218828002221A70D1E759885248514A08
:10C050000901521804685168546001608188118197
:10C06000022282800432EEE70722ECE79A7A002A65
:10C0700007D1DA7A002A12D100221A705A805A6047
:10C0800051E6002243499A728A89002AF1D1897BBC
:10C090000029EED05A80FFF7D9FD040080E7002286
:10C0A000DA723C4A918B0029E6D1927F002AE3D0D4
:10C0B0000122EFE7FFF7ECFCEFE7FFF789FCECE785
:10C0C0005A88344B12019B185868FFF7B7FCE4E715
:10C0D00000225A60FFF7A0FCDFE70A24E2E5002215
:10C0E0001A701BE001221A701B325643A6193289BE
:10C0F0009A81B288DA81F2689A600FE002221A709F
:10C100001A325643A61932899A81B288DA81F268C6
:10C110009A60327C063A51424A411A741800FFF77D
:10C120001FFC1C22206F002150432018FFF762F8EB
:10C13000636F002B21D00321226F013B01320A40A3
:10C1400022676367002B18D00020FFF78FFD78E689
:10C1500003221A7019325643A619F2889A8132893D
:10C16000C8E704221A7018325643A619F2889A8139
:10C170000022DA81D2E70522B2E70421074A1378C8
:10C180008B4313705DE61B68FFDEC046082200206B
:10C1900050210020DC210020FC2100204C21002027
:10C1A00010B50800FFF762FD10BD000010B5054A8C
:10C1B000042311780800184003D10B431370FFF7D4
:10C1C00055FD10BD4C210020044B02681900383188
:10C1D0008A4201D013000833036070470421002015
:10C1E000F0B5204F85B07E6F0C0001920023032E26
:10C1F00034D808251C4A6D1A526C0092AA422DD8D8
:10C2000003253B6FF3181D401C236B43FB1826C806
:10C2100026C326C826C30068013618607E6701233E
:10C22000002C1BD0104B009A1B6C0026D218072341
:10C230001A400D4BD20099180391019AF300D318BC
:10C24000039A013603CB03C203A8FFF7BDFFB44234
:10C25000F3D1054B5A6C14195C640123180005B026
:10C26000F0BDC0466421002004210020F0B58BB051
:10C2700001933C4B0D001978022306001800194267
:10C2800029D00330002D26D02988374B0138994218
:10C2900021D06B88002B1ED00023032468682989D5
:10C2A000994204D8002A18D1170004300AE0DF00B0
:10C2B000C759274253D10133F2E7D300C35A0132A1
:10C2C000FF18BFB29142F8D802AB991C3800FFF7B3
:10C2D00057FB002805D00BB0F0BD118802AB598088
:10C2E0005788019B03AC23700023237402AB5B8847
:10C2F0001E4A638203232989A3821368A17501332F
:10C300001360E3602B8823816B88E780A380019B07
:10C31000032B03D1013323743368A36100236A68BC
:10C3200020006381FFF75CFF00280AD102AB5B8825
:10C330000F4A1B01D21853890830033BDB1B538182
:10C34000C9E7002E07D00023E2687360B372094B7F
:10C3500032601B893381FFF729FF0020BBE70320F0
:10C36000B9E7C0464C210020FFFF000060210020FB
:10C37000DC2100205021002073B5052304000D00AE
:10C38000002818D0002916D06B469E1D3100FFF7FB
:10C39000C5FB0A2300280ED03288084B12019B18D7
:10C3A0009A89616801329A81296063680C336B60F5
:10C3B0000123A3720023180076BDC046DC210020B3
:10C3C00037B504000520002C18D06B469D1D2900B0
:10C3D0002000FFF7A3FB03000A20002B0ED02A88C1
:10C3E000074B12019B189A890438002A06D0A17ABB
:10C3F000002903D00020013A9A81A0723EBDC046B8
:10C40000DC21002073B50B4B04001A7802230D00C9
:10C4100018001A420DD00330002C0AD06B469E1D26
:10C4200031002800FFF7ACFA002802D1338865807C
:10C43000238076BD4C21002030B50E4B02001978C8
:10C4400002231800194214D00330002A11D0138897
:10C450000138022B0DD8834007495488C9184B89ED
:10C460001D1B032D05D42B000020033B4B811080A6
:10C47000508030BD4C210020DC21002010B502236B
:10C480000022FFF7F3FE10BD10B50523002A03D0EC
:10C49000033BFFF7EBFE0300180010BD10B50523AA
:10C4A000002804D0023B0022FFF7E0FE0300180042
:10C4B00010BD0000022200B50E4B89B019781300A0
:10C4C000114214D00C4ADB18904210D0052201AB67
:10C4D0001A70043A1A710022D88011001800FFF770
:10C4E0007FFE0823002802D0FFF760FE002318001B
:10C4F00009B000BD4C210020FFFF000037B50C0043
:10C5000069460500881D01A905800C80FFF75CFBCA
:10C510003EBD13B513006A460C00911D0880220031
:10C520000020FFF751FB16BD13B513006A46040047
:10C53000901D0A0000210480FFF746FB16BD05236D
:10C54000002804D0002902D003680B6000231800E3
:10C55000704729DF704728DF70470000094B5A6E8B
:10C56000013A5A66002A04D1022007490A78824318
:10C570000A701A6E0132042A01D01A66704700222E
:10C58000FBE7C046142200201022002070B50B4D9E
:10C5900004006A6E0020042A0FD02B6ED318032BE0
:10C5A00000D9043B01326A6618225343ED1800217A
:10C5B0002800FEF71FFE0120256070BD1422002018
:10C5C00030B5040085B00D00102200216846FEF74A
:10C5D00011FE237A012B0AD0022B10D063682900A8
:10C5E0000193236868469B68984705B030BD0023D7
:10C5F0006A46137023690293A38A9381EEE70123AD
:10C600006A4669461370A289E3894A81D31A0B816D
:10C61000E4E7000070B51B4B5A6E002A27D018249F
:10C620001D6E6C431C19227A012A06D0022A22D0E0
:10C6300009212000FFF7C4FF19E0A28AE08A121A3C
:10C64000FF2A15DC92B2182169435B18D9681B696F
:10C65000800009181818FFF77CFF11280FD102225B
:10C6600009490B7893431A00042313430B7070BDE0
:10C6700080225200E7E7A089FFF76DFFEDE7002871
:10C68000F5D0D5E71422002010220020062310B593
:10C69000044A1178194204D1043B0B431370FFF78D
:10C6A000B9FF10BD10220020F7B5170001221E00AF
:10C6B0001D4B0D00197804001300114232D093185D
:10C6C00000282FD0194A90422CD3194A904229D2DF
:10C6D00003221300002F25D0002D23D03900294339
:10C6E000931811421ED10268013BAA421AD8B20027
:10C6F0004168AA18914215D3013B002E12D001A81F
:10C70000FFF744FF072300280CD0019B089A1C6008
:10C710005A600122019B1A72DF601D619E82FFF741
:10C72000B5FF00231800FEBD102200208820002045
:10C7300098200020F7B5160001221F001A4B0C00AC
:10C7400019780500130011422CD09318002829D025
:10C75000164A904226D3164A904223D20133002C27
:10C7600020D0A2050333002A1CD10268013BA2425B
:10C7700018D8B2024168A218914213D3013B002E8F
:10C7800010D001A8FFF702FF072300280AD00222D9
:10C79000019BA40AA0C3019B1A729C811E82FFF711
:10C7A00075FF00231800FEBD102200208820002005
:10C7B000982000200323002803D0034B5B6E036006
:10C7C000002318007047C04614220020022270B5D2
:10C7D000294904000B78134241D01823274A156ECB
:10C7E0006B43D018022C04D0032C2CD0FFF712FF7F
:10C7F00070BD0021224B1970037A012B0CD0022B43
:10C80000F4D18389028A01338381C38901339BB2C6
:10C81000C3819A42EAD10EE0848AC38AE11AFF29D1
:10C820000EDC89B25B18182169439BB25218D3827F
:10C8300000219C42DAD1FFF7C3FEFFF78FFED5E758
:10C8400080214900EEE70E4A13780133DBB2032B57
:10C8500001D81370CAE7002308211370EBE7042006
:10C860000342C3D0834305480B70406E0028BDD0FF
:10C8700013430B70BAE7C046102200201422002098
:10C880007C2200200023012110B504001C419AB233
:10C890000C4203D10133082BF7D1014A100010BD1F
:10C8A000FFFF000070B504AC2578002810D00029E7
:10C8B0000ED0002A0CD000246600865B9E4211D167
:10C8C0000123A340DBB2DC438A18E4B28A4200D1E0
:10C8D00070BD0878002D03D0184308700131F5E7CA
:10C8E0002040FAE70134082CE6D1F1E707B50093C0
:10C8F00013000122FFF7D6FF07BD10B5031E07D0B6
:10C9000000246300C35A934204D1214101230B4008
:10C91000180010BD0134082CF3D10023F8E7F0B55E
:10C920000B1E0FD0002301261C00150025413542A7
:10C9300005D067005D00CF5B4519AF80013301343E
:10C94000082CF2D10360F0BDA022044BD205D358CD
:10C95000034A125C0120D34098437047040500004D
:10C960002C3A0200044BA0211A5C01239340034A95
:10C97000C9058B507047C0462C3A02000C050000D8
:10C98000044BA0211A5C01239340A122C905D200C7
:10C990008B5070472C3A020010B50020FFF7F0FFD3
:10C9A0000120FFF7EDFF0220FFF7EAFF0320FFF76A
:10C9B000E7FF10BD10B50020FFF7D4FF0120FFF7FF
:10C9C000D1FF0220FFF7CEFF0320FFF7CBFF10BD02
:10C9D000A02210B5074BD205D158074B185C012394
:10C9E00083401C00A1208C430B400449C00014501C
:10C9F000535010BD040500002C3A02000C05000045
:10CA0000014B185C7047C046283A020030B5FF253C
:10CA100003232C00C2B21340DB009C408901294053
:10CA2000E4439940002814DA0F231340083B0E48D2
:10CA30009B089B001B18D86904402143D9611F2320
:10CA4000C0211A401E3B9340084A490053501360CE
:10CA500030BDC025054B80088000C018AD0043598B
:10CA60001C4021434151EAE700ED00E000E100E015
:10CA7000A0238000DB05C018E02310B5DB00C258FE
:10CA8000034C09042240C250C2581143C15010BD8A
:10CA9000FFFFFCFFF0B50024C1250122260087B06E
:10CAA0004F4B504850490394AD001F68012F04D1EB
:10CAB00047593A4201D01E601443043352008B425E
:10CAC000F3D14A4B1A68012A0AD100221A60802346
:10CAD0001B061C43A022A223D205DB00D3580393DC
:10CAE000230718D0A22701260025FF0026420ED0DA
:10CAF0003C4AAB009A18D059D1593D4A9B58002B5B
:10CB000005D00322090CC0041140C00E984701351E
:10CB10007600042DEAD1002C5CDA00230493013B5B
:10CB200000273E000593324B1A0044329457621C92
:10CB300043D0E4B2C0222500072095432040BF3AED
:10CB40008240E90805A8405C024236D058190530F9
:10CB5000C07FA40940B28000C3580193002B07D1C5
:10CB6000032C2AD104AB5B1818781043187001E02D
:10CB7000032CF7D02B00A020C133FF33C0059B004E
:10CB80001B5803A8415C9B039B0F0A420AD0022B4F
:10CB900013D1032C0BD1210028000137FFF768FFC8
:10CBA000FFB204E0032B08D10221032CF4D0019B37
:10CBB000002B02D02100280098470136052EB2D163
:10CBC000002F07D0A022A223D205DB00D358039A5E
:10CBD000934201D107B0F0BD0393049BA0E7C04688
:10CBE0000061004000600040106100407C61004036
:10CBF000802200201FB501236A461370034B107278
:10CC00000191684606CB904705B000BDCC220020BC
:10CC1000C12330B54D4C9B00E25885B04C4D920578
:10CC20004CD5AA6A002A49D000238122AB62C223D4
:10CC300092009B00E250474B9A7E002A01D10132BC
:10CC40006260022269460A709021C90062586846F3
:10CC5000625069460392DA7D0A72DA680192002214
:10CC6000DA751A7606CB90472B6A002B0FD000227C
:10CC7000384B988A997D2A6288425BD29A8A996851
:10CC8000895C9A8A013292B29A82334BE150AB6C42
:10CC9000002B11D00023AB642E4B9A7E002A01D0CA
:10CCA00001222260DA7D002A06D00022587EDA7541
:10CCB000C0B2D968FFF79EFF05B030BDE3585B07EF
:10CCC000D2D5EB68002BCFD0A322224BD200D97D46
:10CCD000002914D1E960A2585A7ED97D9142C3D16E
:10CCE0001A7E002A16D0DA751A69D968DA6000222D
:10CCF000587E1A76C0B25A76FFF77CFFB4E700215F
:10CD0000E960597ED868A25842545A7E0132D2B2A4
:10CD10005A76E1E79A7E002A01D101326260C2228E
:10CD2000812192008900A1500022587EDA75C0B29C
:10CD3000D968E1E70029AAD06846017299680270B3
:10CD400001919A7506CB9047A1E7C04600200040AC
:10CD5000FC200040CC2200201C050000F7B5040098
:10CD600025009C4608AB1E7809AB1B780878019318
:10CD7000FC35002852D113780093AB6A002B04D005
:10CD8000A862012363610B7012E02F6A002F23D089
:10CD90002B62AF6A002F01D0AB62F2E713789E429C
:10CDA00012D96146C95C204BE150137801331370EE
:10CDB000009B0120B3420CD1FC34A3680120002B5E
:10CDC00007D00020A06004E0019A0123002A01D0CE
:10CDD000E361FEBD6361EBE7EB68002BE8D0EF6039
:10CDE000AB6A002B01D0AF62CBE713789E42DFD94C
:10CDF000A3216046C9006158C15413780133DBB2E6
:10CE00001370721E934206D1802302229B00E250CF
:10CE100001232362CCE79E42FAD1C9E70023AB622B
:10CE20002B62EB60C8E7C0461C0500000A4A835825
:10CE30008350002083420DD00130084A1840013849
:10CE400010408222120280189A0700D504485B071E
:10CE500000D504487047C046C4040000037EFFFFAD
:10CE60000182000002820000F0B585B003920A0042
:10CE70001E000023FC32936093621362D360C21DD4
:10CE8000D3778022071DFB77013305000C00920049
:10CE90009E420ED10221A150236223602B68002BF9
:10CEA00009D000200E4BAB60AA687E33E25005B07B
:10CEB000F0BD8B50F0E700232A0029000193009673
:10CEC000039B263223312000FFF748FF0028F2D1D0
:10CED000FB7F002BEBD02000FFF7A8FFE7E7C04661
:10CEE00086020000084B09491A680423C046C04660
:10CEF000C046C046C046C046C046C0468A4200D072
:10CF0000C046013BF2D170477C2000200024F40091
:10CF1000F0B585B01F000AAB1B7816000A0003931A
:10CF20000023FC32936093621362D36080220C0072
:10CF300092008B50C21D011DD377CB770133236242
:10CF4000A360D17F05008F4210D9715C154BE15071
:10CF5000D37F0133D3772B68002B0ED00020124BE8
:10CF6000AB60AA687E33E25005B0F0BD039A002A98
:10CF700001D0E361EFE76361EDE72A002900039B3D
:10CF8000009701932632330023312000FFF7E6FE9D
:10CF90000028F2D10435EB7F002BE5D02000FFF70D
:10CFA00045FFE1E71C05000086020000F0B52826D9
:10CFB00085B002900C0001794C4F4E430191B91994
:10CFC000C81CC57F0820002D6AD1F2514B608D60CE
:10CFD0000B188A1D0531D577CD77A27B444FDA77C0
:10CFE000637B002B2ED0A0262368F605C133FF33C8
:10CFF0009B009F516368C133FF339B009F51012306
:10D00000190022689140A122D200B15061688B4082
:10D01000B3502368374AC133FF339B009A5163688A
:10D02000C133FF339B009A51FFF75CFF0396A222A6
:10D03000039BD2009B5862680126D340334231D013
:10D04000002D42D1A022A1212368D205C133FF3394
:10D050009B009F506368C900C133FF339B009F5002
:10D06000029B20681B686268585023491F4D5A5024
:10D07000A168224A99502823019A53435B59002BF7
:10D0800006D0029B217B1868000B40B2FFF7BEFC64
:10D090002823019A00205343ED1801230335EB7731
:10D0A00005B0F0BD3300226813499340039A01355F
:10D0B0005350FFF717FF2368039A9E40A123DB001C
:10D0C000D650FFF70FFF092DB1D101252B00626863
:10D0D000A0269340084AF605B350FFF703FF6368A4
:10D0E0009D40A123DB00F550ACE7C046E8220020BC
:10D0F0000C0600000D0600000C05000024050000D1
:10D10000A023027901680520DB00C85028235A4378
:10D11000024B9B1802220333DA777047E822002083
:10D120001300F0B587B00C0003929B0702D00620D5
:10D1300007B0F0BD0379016804930120C223404287
:10D140009B00C850049B293058432A4B1818431D94
:10D15000DE7F9C46002E05D0C12382689B00CA500A
:10D160001120E5E7039B9F080123BB431F00634693
:10D17000DF770827039B1F400597D8D1039B070043
:10D18000836123000C3764CB64C7A378471CFB770B
:10D19000B1276368FF00C3616378CB512778012F03
:10D1A00020D00126B446002F03D1039B5A093240F8
:10D1B0009446624632402826049B5E430D4B9B19E1
:10D1C0000233DA77A37800926268FFF7A1FE282283
:10D1D000049D084B5543EA58002AA9D15B19053331
:10D1E000DA77A5E7059A831CDA77A3786268FFF7F8
:10D1F0003BFEECE7E8220020F0B587B001930CABD2
:10D2000003AC1D7806000F00009200210C222000C4
:10D21000FDF7F0FF2A00551EAA41019B5201A370A1
:10D22000009B2100300067706360FFF779FF07B053
:10D23000F0BDF0B587B0019302AB05000F001600FA
:10D2400000210A22981DFDF7D5FF012303AC2370AE
:10D25000019B0022210028006770A3706660FFF721
:10D260005FFF07B0F0BD0000F0B52B4C89B0220085
:10D270002100A51CEB7F661C0193F37F23310093F3
:10D280002632E3692548FFF769FD244900281ED1AD
:10D29000231DDB7F9C46A36903936346002B1CD1AF
:10D2A000237B9A1E1F00012A17D8E3692269934243
:10D2B00013D10398E37B62698006C00FE261F377C4
:10D2C000E877032F05D100902000FFF721FE09B079
:10D2D000F0BD2000FFF7C8FDF9E7220005AB0C32D6
:10D2E000E0CAE0C3634604A8002B06D00C4A8B5862
:10D2F0008B500222134202D00123037002E05B072D
:10D3000000D502700022631DDA77039B5B07DED431
:10D31000236861689847DAE7E8220020003000407F
:10D32000C404000070B5C378050000791B02C01862
:10D3300080B206F055F90E4A0E4B05F043FB06F09D
:10D340008BF92B78041C68781B02C01880B206F099
:10D3500047F9094A094B05F035FB0022084B05F057
:10D36000A3FD06F079F9074B1860074B1C6070BDF0
:10D370006FD39FFD4811593F732EC55565DF653F3B
:10D3800000804640942A0020802A002070B503784F
:10D390000500002B02D0012B36D070BD03791B4C49
:10D3A000002B29D11A4B1B78002B20D12370194B4D
:10D3B00019491A68194BC046C046C046C046C04607
:10D3C000C046C046C0468A4200D0C046013BF2D1AA
:10D3D0000623134A44211348FFF72BFF2B79022B16
:10D3E00010D0032B0ED0012BD7D12370D5E701230A
:10D3F0000D4A23701370D0E70948FFF793FF01230C
:10D400002370EBE70123F0E7084AF3E71623002037
:10D41000A02A00207C2000200024F400204E0000E0
:10D4200010230020303A02007F2A00207D2A0020AD
:10D430001FB517220092013A0192CD22D204002397
:10D44000029269460122074C039320000A73064AA0
:10D45000FFF7ACFD002801D0FDF7D6FE2000FFF756
:10D460004FFE1FBD303A02008DD30100130013B5EB
:10D470000024074A5370074B11701C700100009480
:10D4800002230548FFF7B8FE044B1C7013BDC046CD
:10D4900017230020A02A0020303A02001623002083
:10D4A000012313B50024084A1370084A11700100C3
:10D4B00000940748FFF7A0FEA04201D0FDF7A4FEAC
:10D4C000044B1C7013BDC046A02A00201923002065
:10D4D000303A020016230020084B09491A68094B0C
:10D4E000C046C046C046C046C046C046C046C0460C
:10D4F0008A4200D0C046013BF2D170477C20002018
:10D500000024F400204E000010B5FFF791FF10BD7D
:10D51000F8B500241B4F1C4E3C703470FFF7DCFF45
:10D5200021007020FFF7BCFFFFF7D6FF012170201C
:10D53000FFF7B6FFFFF7D0FF144D06222C21442041
:10D540002C70FFF793FF3B78114C124F002B12D039
:10D550003378002B0FD1104B1049186804F058FF96
:10D5600004F03EFF2D780E4B6E00B853186804F09F
:10D5700037FF6055F8BD00222B7859007A52E254EB
:10D58000F8E7C0467F2A00207D2A00207E2A00205E
:10D59000982A0020842A0020942A0020000020419C
:10D5A000802A0020F8B50023184D194F2B703B70CE
:10D5B000FFF792FF02217020FFF772FFFFF78CFF49
:10D5C0000123144C06222C2144202370FFF74EFF28
:10D5D0002B78114E114D002B12D03B78002B0FD120
:10D5E0000F4B1049186804F013FF04F0F9FE24787B
:10D5F0000D4B6700F053186804F0F2FE2855F8BD93
:10D600000022237859007252EA54F8E77F2A00205A
:10D610007D2A00207E2A0020842A0020982A0020CB
:10D62000942A002000002041802A0020F8B5002321
:10D63000184D194F2B703B70FFF74EFF04217020DF
:10D64000FFF72EFFFFF748FF0223144C06222C2180
:10D6500044202370FFF70AFF2B78114E114D002B49
:10D6600012D03B78002B0FD10F4B1049186804F0F3
:10D67000CFFE04F0B5FE24780D4B6700F053186818
:10D6800004F0AEFE2855F8BD0022237859007252EE
:10D69000EA54F8E77F2A00207D2A00207E2A002015
:10D6A000842A0020982A0020942A0020000020418B
:10D6B000802A0020F8B50023184D194F2B703B70BD
:10D6C000FFF70AFF08217020FFF7EAFEFFF704FFCB
:10D6D0000323144C06222C2144202370FFF7C6FE9E
:10D6E0002B78114E114D002B12D03B78002B0FD10F
:10D6F0000F4B1049186804F08BFE04F071FE24787B
:10D700000D4B6700F053186804F06AFE2855F8BD09
:10D710000022237859007252EA54F8E77F2A002049
:10D720007D2A00207E2A0020842A0020982A0020BA
:10D73000942A002000002041802A0020F8B5002310
:10D74000184D194F2B703B70FFF7C6FE102170204B
:10D75000FFF7A6FEFFF7C0FE0423144C06222C217F
:10D7600044202370FFF782FE2B78114E114D002BC1
:10D7700012D03B78002B0FD10F4B1049186804F0E2
:10D7800047FE04F02DFE24780D4B6700F053186817
:10D7900004F026FE2855F8BD002223785900725265
:10D7A000EA54F8E77F2A00207D2A00207E2A002004
:10D7B000842A0020982A0020942A0020000020417A
:10D7C000802A0020F8B50023184D194F2B703B70AC
:10D7D000FFF782FE20217020FFF762FEFFF77CFE3C
:10D7E0000523144C06222C2144202370FFF73EFE13
:10D7F0002B78114E114D002B12D03B78002B0FD1FE
:10D800000F4B1049186804F003FE04F0E9FD24787A
:10D810000D4B6700F053186804F0E2FD2855F8BD81
:10D820000022237859007252EA54F8E77F2A002038
:10D830007D2A00207E2A0020842A0020982A0020A9
:10D84000942A002000002041802A0020F8B50023FF
:10D85000184D194F2B703B70FFF73EFE4021702092
:10D86000FFF71EFEFFF738FE0622144C2C21442041
:10D870002270FFF7FBFD2B78114E124D002B12D0BA
:10D880003B78002B0FD1104B1049186804F0C0FDF5
:10D8900004F0A6FD24780E4B6700F053186804F0DE
:10D8A0009FFD2855F8BD0022237859007252EA5492
:10D8B000F8E7C0467F2A00207D2A00207E2A00202B
:10D8C000842A0020982A0020942A00200000204169
:10D8D000802A0020F8B50023184D194F2B703B709B
:10D8E000FFF7FAFD80217020FFF7DAFDFFF7F4FD66
:10D8F0000723144C06222C2144202370FFF7B6FD89
:10D900002B78114E114D002B12D03B78002B0FD1EC
:10D910000F4B1049186804F07BFD04F061FD24787A
:10D920000D4B6700F053186804F05AFD2855F8BDF8
:10D930000022237859007252EA54F8E77F2A002027
:10D940007D2A00207E2A0020842A0020982A002098
:10D95000942A002000002041802A002010B500F009
:10D960001DF810BD10B500F03DF8014B188810BD32
:10D97000A22A002010B50378002B0BD140680121AA
:10D980000023C25E044B1A8000F096F8002801D0F4
:10D99000FDF73AFC10BDC046A22A002010B50E4982
:10D9A000002000F055F8002801D0FDF72DFC1C22C6
:10D9B0000A48037893431A0018231343037000F0B6
:10D9C00065F80121064800F077F8041E01D0FDF744
:10D9D0001BFC200010BDC04675D901004820002066
:10D9E0001A23002010B500F061F810BD70B50024B6
:10D9F000A022134BD2001C60124B9C5008329D5841
:10DA0000114A517CD668480085530131157CC9B252
:10DA1000517401208D4211D991684968A14201D108
:10DA20002000516891600968084A9950A02101229C
:10DA3000C9005A50002801D000201A6070BDC046AD
:10DA400000710040007000401C230020040500000D
:10DA500070B50B4C0300A27C0D000820002A0ED1EB
:10DA600008490A60002D06D0002B00D1064B19781A
:10DA70000720FEF7CBFF012300202560A37470BDB3
:10DA80001C23002000710040383A02000023064A9F
:10DA900043605368002B02D15060704713005A68EE
:10DAA000002AFBD15860F8E71C2300200122014B1B
:10DAB0001A6070470070004070B5154C0500A37CDB
:10DAC0001120022B18D00223A37400236268217452
:10DAD0001068A2600F49104AE56063745050A0209E
:10DAE00001210E4DC0002B6011502068984204D0D7
:10DAF000C12080001150002070BD2B68002BFCD08D
:10DB0000FFF774FF0028F8D00123A374F3E7C046A1
:10DB10001C2300200405000000700040007100403C
:10DB20001FB5144CE168002913D1134BC2201960B2
:10DB30000123124A80001350F930FF301150A12107
:10DB400001A80370C90052588280A37423689847C3
:10DB50001FBDFFF74BFF0028FAD0C222012307495F
:10DB600092008B50002201A80270E2684260227C81
:10DB70000281EAE71C230020007100400070004091
:10DB800070B5744E05003378002B03D0002333703A
:10DB9000FEF702FF0024172D13D8280004F096FA90
:10DBA0000C1313394B5D6F79818681868F94949421
:10DBB0009494B5BAC2CAD5D50024FEF7EDFE664BE3
:10DBC0001C70200070BD0020FEF7BEFE002819D09A
:10DBD0000020FEF7D5FEA81E434258415F4B40424D
:10DBE0001840FA231B01C0185B4B1D70642104F020
:10DBF00081FA5B4B1968414300225A48FDF71AFE2F
:10DC00000400DEE7FEF7AEFEC820022DECD00018BF
:10DC1000EAE70020FEF798FE002808D00020FEF773
:10DC2000AFFEC820800003224B4B1A70DEE7FEF7E0
:10DC300099FEC820F7E70020FEF786FE002807D0EF
:10DC40000020FEF79DFEFA200001434B0422ECE782
:10DC5000FEF788FEC8204000F7E70020FEF774FEBC
:10DC6000002809D00020FEF78BFE05223A4B1A70DF
:10DC70003B4B19684900BFE7FEF774FEF5E700204B
:10DC8000FEF7A6FE0622344B1A70354B00221968A7
:10DC9000B3E70020FEF766FE07222F4B1A70002420
:10DCA0008FE701203070FEF793FEEEE70120307021
:10DCB000FEF78EFE2A4B1968052359439CE7FEF7B1
:10DCC00079FE254B0C22E9E7274E3000FDF7FEFDDB
:10DCD00004001120401B14D0002C12D101280CD0BC
:10DCE000C8256421684304F005FA1D4B2200196819
:10DCF00041433000FDF79EFD04000220FEF732FE96
:10DD00005FE70220FEF73CFE5BE7FEF745FE124BA5
:10DD10001222C3E7FEF740FE0020FEF723FE0E4B63
:10DD20001322BBE7FEF738FE0120FEF71BFE0A4B6D
:10DD30001422B3E7FEF730FE0020FEF713FE0120A9
:10DD4000FEF710FE044B1522A8E7FEF733FE024B48
:10DD50001D70A4E7642300208823002068F7FFFFDC
:10DD600050230020682300203023002002000120DF
:10DD700010B5044B1B68184002D01000FFF700FFDD
:10DD800010BDC04660230020072303280CD8012AB9
:10DD90000CD10022012909D102000E32D2B2032394
:10DDA00058430C4BC2540023180070470129F6D089
:10DDB0004BB2002B08D007230229F5D1032343439C
:10DDC0000448C0184270EEE703214143014840185F
:10DDD0008270E9E75423002010B5FEF711FEA0235E
:10DDE0008000DB05C018E023DB00C25804490A406C
:10DDF000C250C022C15892020A43C250002010BD36
:10DE0000FFFFFCFF10B5012202210020FFF7BCFF3D
:10DE1000002801D0072812D1072202210120FFF794
:10DE2000B3FF002801D0072809D100210A220800E9
:10DE3000FFF7AAFF002802D0072800D1002010BD5C
:10DE400010B50020FFF7C8FF002801D0062807D131
:10DE50000120FFF7C1FF002802D0062800D10020D2
:10DE600010BD000010B50388102B02D0112B22D05A
:10DE700010BD1C4C2068002819D101220100FFF7B9
:10DE800083FF002801D0072825D107220221012085
:10DE9000FFF77AFF002801D007281CD104220221B5
:10DEA0000020FFF771FF002801D0072813D1236855
:10DEB00001332360DCE70B4A1368013B1360002B3E
:10DEC000D6D1FFF79FFF0028D2D0074B1B68002B4D
:10DED000CED09847CCE7044B1B68002BE7D098477F
:10DEE000E5E7C046902300208C23002010B5FFF703
:10DEF00035FD00F0BDF9002010BD76DF704778DFFA
:10DF000070477ADF70477CDF7047A8DF704767DFB4
:10DF100070473CDF704748DF7047704710B5FDF72A
:10DF200073F910BD10B50020FFF720FF002801D0C5
:10DF3000FDF76AF9FFF784FF002801D0FDF764F9C7
:10DF4000FFF7E7FF002801D0FDF75EF910BD0000E4
:10DF500010B5024803F0BCFF10BDC0465425002098
:10DF600010B5104B104819884A1C1A800F4BCAB2C2
:10DF700019800B0A9B180E4A138003F061FF0D4BAA
:10DF80000200186008239A4307D00B4B984204D034
:10DF90000A4B984201D0FDF737F90122084B1A705D
:10DFA00010BDC046E624002054250020E4240020B3
:10DFB000DC240020A42A00200430000001340000EA
:10DFC0005E20002010B5FFF7CDFC8008C1B20848E4
:10DFD00003F09AFC082302009A4307D0054B9842AD
:10DFE00004D0054B984201D0FDF70EF910BDC04694
:10DFF000EC240020043000000134000010B50400BF
:10E00000FEF7E4FB200000F03DFF10BD1FB504004B
:10E0100001F060F8200002F0A9FC21002A4803F07A
:10E020002EFE2100294803F089FB200000F0FCFFB0
:10E030002000FFF717FF2388112B26D00BD8022BC7
:10E0400027D0102B16D0200000F0E6FE210020483B
:10E0500001F032FE1FBD512B21D0552B01D03A2BA0
:10E06000F1D1A0881321FFF748FF0028EBD0FDF77E
:10E07000CBF8E8E70720FFF779FE002801D0FDF78D
:10E08000C3F8A288134B1A80DDE70122114B5242DC
:10E09000F9E7104B00211888FFF739FFE5E7A3796E
:10E0A000002BD0D0A27B043A022ACCD8022B00D07D
:10E0B00001236A461370C1235B009380A0886946E0
:10E0C000FFF723FFD1E7C04654250020EC240020B1
:10E0D000242500205C20002010B50378002B08D1F7
:10E0E000044B3B211888FFF708FF002801D0FDF7FB
:10E0F0008BF810BD5C20002010B5002809D0032843
:10E1000006D10138FFF732FE002801D0FDF77CF878
:10E1100010BDFFF707FFFBE7F8B5414B1B78002B5D
:10E1200000D175E03F4B404E1A68012A00D070E0E4
:10E130000022326002321A6033683C4A5B00995A0E
:10E14000FF250A003A4C0B0A2A403A4F9B182288B6
:10E1500038009B18238003F0A3FE3368334A013351
:10E160005B00995A38000A000B0A2A409B18228843
:10E170009B18238003F094FE33682C4A02335B0023
:10E18000995A38000A000B0A2A409B1822889B18CB
:10E19000238003F085FE3368244A03335B00995AD9
:10E1A00038000A000B0A2A409B1822889B182380FB
:10E1B00003F076FE3368204A3800D21851781E4AA0
:10E1C0000902D35C19430A000B0A2A409B182288D3
:10E1D0009B18238003F064FE3368174A3800D31875
:10E1E000D9789B78090219430B0A0D405D192388E1
:10E1F000ED18258003F054FE104B21881B88FF2B5F
:10E200000BD8153189B2380003F04AFE0023238071
:10E21000F8BD04223260033A8DE71631F2E7C046BA
:10E220005E200020E0240020E8240020842A002032
:10E23000DC24002054250020982A0020E42400201B
:10E2400010B5032000F0D8FC002801D0FCF7DCFF5B
:10E2500010BD000010B50449044801F02BFD002852
:10E2600001D0FCF7D1FF10BD51DF010024250020B3
:10E27000F0B5A1B0FFF748F90023A44A0521180022
:10E28000FDF76EFA002801D0FCF7BEFFA04A01217D
:10E29000A048FDF7B7FA002801D0FCF7B5FF9E4A69
:10E2A00001219E48FDF7AEFA002801D0FCF7ACFF33
:10E2B0009B4A01219B48FDF7A5FA002801D0FCF7F5
:10E2C000A3FF994A01219948FDF79CFA002801D043
:10E2D000FCF79AFF012308AD0893D022002394494C
:10E2E000280003F07DFE002801D0FCF78DFF10AC64
:10E2F00022000121002003F0BBFE002801D0FCF722
:10E3000083FF200003F0CCFE002801D0FCF77CFF47
:10E31000884803F089FE002801D0FCF775FF864885
:10E3200003F08CFE002801D0FCF76EFF1123834E12
:10E330002B70300005F058FB310082B22800FFF747
:10E34000E2FD002801D0FCF75FFF7D48FFF7D7FD15
:10E35000002801D0FCF758FF082200212000FCF71C
:10E3600049FF784B20001093C8235B041193FFF7FB
:10E37000C8FD002801D0FCF747FF3C220021200007
:10E38000FCF738FF022323706F4B202263800323A6
:10E3900023826E4B002128006361FCF72BFF0123D1
:10E3A0000021EB703F332B6174336B612A000091C5
:10E3B000674B200000F06AFB002801D0FCF724FF27
:10E3C0000B27FFF747FF032303AE6F4414220021FE
:10E3D00030003B70FCF70EFF01220023B7605D4F59
:10E3E00032715D4A3374310038000393069203F0B2
:10E3F0006BFC002801D0FCF707FF14220021280045
:10E40000FCF7F8FE002301220893AB60534B2A71FE
:10E410000B931123290052482B7403F0BBF90028F9
:10E4200001D0FCF7F1FE402200212000FCF7E2FEC3
:10E4300020004C4900F036FF11232000A38703F091
:10E44000F3FA002801D0FCF7DFFE1C220021200097
:10E45000FCF7D0FEA02292026260F0221203002399
:10E46000A260032210932273BA8923743E4B2000CA
:10E4700063613E4BE281A36100F09EFD002801D064
:10E48000FCF7C2FE00223A493A48FDF7D3F90028CA
:10E4900001D0FCF7B9FE80210022C9013648FDF702
:10E4A000C9F9002801D0FCF7AFFE80210022C90184
:10E4B0003248FDF7BFF9002801D0FCF7A5FE802106
:10E4C0000022C9012E48FDF7B5F9002801D0FCF75C
:10E4D0009BFEFFF7B5FEFFF71BF8FFF763F8FFF7AA
:10E4E000A5F8FFF7E7F8FFF729F9FFF76BF9FFF752
:10E4F000ADF9FFF7EFF9FFF70EFD002801D0FCF7AB
:10E5000083FE20BF40BF20BFE5E7C0469423002024
:10E51000C5DF0100543A020019E101005C3A020033
:10E5200061DF0100583A02001BDF0100603A02007F
:10E530000C2400200DE00100FDDF0100393A02004B
:10E5400041030000100038000106000050200020A8
:10E55000F9E00100542500201100001164111100A0
:10E56000EC240020483A0200D9E001001DDF010040
:10E570009A19000004250020A4250020342500203D
:10E58000C425002071DF704772DF704779DF704764
:10E590007DDF704765DF7047F0B5002506002F006E
:10E5A00089B001930EAB10CB04911B8803920593A5
:10E5B000238802933388BB420EDC0020854209D0B9
:10E5C0002388029A013B9B1A9BB2FF2B3ED8019AEB
:10E5D0000299535409B0F0BD7368B9005918042268
:10E5E00007A805F0E5F906AB0022D91C07A8FFF73C
:10E5F000D1FF0028EED106ABDB78039A934223D1FA
:10E6000069426941238849009A18521805998A423B
:10E610001CDC002D08D10133019A04999BB22380A0
:10E62000D154238801332380019B228807A89A189C
:10E6300006ABDD1C2900FFF7ADFF0028CAD12B78FF
:10E64000012522889B1823800137B3E70C20C1E7FE
:10E65000F0B51D0085B00AAB40CB03921F880222A3
:10E66000019700962B000400FFF796FF002807D1C2
:10E67000019700962B00102203992000FFF78CFFD2
:10E6800005B0F0BDF0B5138887B002930023138066
:10E6900003002D331B7807000D001400002B2BD036
:10E6A000029B082B01D80C201CE104AE3000FFF7C0
:10E6B00069FF002800D015E1082209212388EA54C7
:10E6C0002388133201339BB22380EA54208802ABA3
:10E6D000013080B22080153AC918281805F068F971
:10E6E0002388327806339BB22380002A00D0EAE0E8
:10E6F000EA54238801332380BB78002B22D023885F
:10E70000029A04330C20934200D9EBE004AE3000AF
:10E71000FFF73CFF002800D0E4E003222388EA54FE
:10E720002388163201339BB22380EA54238832882F
:10E7300001339BB22380EB181A70120A5A70238897
:10E7400002332380FA78002A14D023880298D91C37
:10E750008142A8D80221E9542388013901339BB2B0
:10E760002380E95423885B189BB22380EA542388D2
:10E770005B1823807A68002A16D023880298D91C57
:10E78000814290D802211278E9542388083101335C
:10E790009BB22380E954238852B201339BB2238079
:10E7A000EA542388013323803B89002B00D08CE07E
:10E7B0003B8A002B0CD03800029B00940193072267
:10E7C0002B0003211030FFF743FF002800D089E021
:10E7D0003B8B002B0CD03800029B00940193152238
:10E7E0002B0014211830FFF733FF002800D079E008
:10E7F0003B6A002B00D077E07E6A002E2ED0B388D3
:10E800002188981C8A1C12189446029A944500D9B3
:10E8100049E7FE2800D946E7FF2203336B542388DB
:10E8200001339BB22380EA54238801339BB22380B7
:10E830003288EB181A70120A5A702088023080B29F
:10E840002080B288002A09D0B168002955D0281844
:10E8500005F0AEF82388B2889B1823803B002C3348
:10E860001B78002B00D07FE03B78181E3AD03A8806
:10E870000720012A36D022880299901C884200D9AC
:10E8800011E7012B06D17B78029902339B1899423C
:10E8900000D208E7029E02AB023EB61AB6B22818B2
:10E8A00004A91E81FFF774FE00281BD13B78022BC0
:10E8B00000D096E002AB1B890922B34200D89AE04F
:10E8C00002AB1E8196E0012212E73800029B009401
:10E8D000019306222B0002210830FFF7B9FE002821
:10E8E00000D165E707B0F0BD26880299B21D8A42C3
:10E8F00000D9D8E61988052901D80720F2E746484B
:10E900000A1892B20392454A9446039A6245F4D992
:10E910005A88052AF1D9101880B26045EDD94048CF
:10E92000814203D0824201D09142E6D805221221D1
:10E93000AA552288013292B22280A954228801323B
:10E9400092B222801988AA181170090A517022887F
:10E95000023292B222805988AA181170090A5170A5
:10E9600023880233238047E7BB6A002BC5D00023EE
:10E9700003933B002C331B78039A934200D873E730
:10E980000C26039B5E43BB6A9E19B3889A1CFE2A21
:10E9900000D988E622880333AB541622238801333A
:10E9A0009BB22380EA54238801339BB223803288B0
:10E9B000EB181A70120A5A702088023080B2208038
:10E9C000B288002A09D0B168002996D0281804F02E
:10E9D000EFFF2388B2889B182380039B0133DBB2AF
:10E9E000C6E7012B00D06BE77B789E4200D267E739
:10E9F00002AA1381082202AB1989FE2900D952E626
:10EA000023880131E954238801339BB22380EA54DF
:10EA100023885918218065E77FF3FFFF7DF300000D
:10EA2000FFFF0000F0B593B06A461F2301AE971DAB
:10EA300004000D0033803B80002820D0C3785B07A2
:10EA400002D4072013B0F0BD320002A9FFF71AFE6E
:10EA500002AC0028F6D1002D13D0EB78002BF0D1BA
:10EA600028003A000AA9FFF70DFE0AAD0028E9D1F7
:10EA70003B7831782A002000FFF786FDE2E73080FE
:10EA8000E9E73D80F4E773DF70470000F8B59C4686
:10EA900004000E000E20002C65D0002A63D0002553
:10EAA00045490D380870454845490D70010089CA2F
:10EAB00089C189CA89C109CA09C16346414A290075
:10EAC0001360414B069A41481A600122404B524262
:10EAD0001A800832FCF78EFB3E4F29003C2238009A
:10EAE000FCF788FB237822003B70A3781032BB70C0
:10EAF000E378FB7063787B703B00103303CA03C379
:10EB00003B00103A083303CA03C33B0008321833F2
:10EB100003CA03C3636AAB4226D1A36A002B33D175
:10EB2000236A002B06D02C4B3B62226A5188598005
:10EB300012881A806368002B00D07B600023274A6C
:10EB400027490868C25004330732202BF9D100232B
:10EB5000244A8868C25004331032202BF9D1310086
:10EB60003800FFF75FFFF8BD1F4B20487B62626AE9
:10EB700098601188198091889980A942CDD99368AD
:10EB80005B5D43550135F8E7194B1A48BB62A26A31
:10EB900098609188998015881D800023994206D835
:10EBA00023002C331A783B002C331A70B8E7956891
:10EBB000ED5CC5540133F1E750260020E825002024
:10EBC000E52500204C26002048260020BD260020F8
:10EBD0004626002008260020F0260020F4260020EB
:10EBE000602000202C2700207026002051260020C5
:10EBF000C4260020D0260020F0B57A4B89B01B78BF
:10EC0000050001930826002B0BD0774F387002A81F
:10EC1000FDF7D0FD029E002E06D001220026734B88
:10EC20001A70300009B0F0BD072231007048FCF7BF
:10EC3000E1FA704C704B22681A4202D03B78012BEB
:10EC400005D0A378002B0BD03B78022B08D16B4B5F
:10EC50006B4A1B68002B13D00121082011709847C4
:10EC60000123634AD25C002A03D10133072BF8D178
:10EC70000192681E03283FD803F028FA040A1115F0
:10EC80001370EDE76378002B02D0019B002B0ED1AF
:10EC9000A378002B03D0019B0225002B07D1E3783A
:10ECA0000325002B03D125796B1E9D41AD00534BED
:10ECB0003D701A68534B002A20D0033D012D1DD80A
:10ECC000217800291AD050490978002916D101313C
:10ECD0000720197090471822002102A8FCF78AFA31
:10ECE0000023387802AA13701372042812D803F094
:10ECF000EDF96F081D2A4D000025D8E700221A7093
:10ED0000E9E70123414A1370394A039202AA1370BA
:10ED1000002306933B78002B5DD1384B1B68002BFA
:10ED200000D17EE7394A107898477AE70222374BBC
:10ED30001A702F4B02AA039301231370E3685382C6
:10ED4000A3681382E6E7236902AA138263695382E8
:10ED50002378002B17D02C4B1978002913D12C4B7A
:10ED60001A79187B02430ED00593022302AA294880
:10ED70001372DB18C370FFF755FE0028CAD10522B5
:10ED8000224B1A70C6E7214B0322FAE7A36902AAB5
:10ED90001382E36953822378002B16D01A4B19781B
:10EDA000002912D11A4B1A79187B02430DD0059312
:10EDB000022302AA17481372DB18C370FFF732FE52
:10EDC0000028A7D1114B0622DBE7104B0422D8E71D
:10EDD0000E4A13709EE702A8FFF755FE00289CD04C
:10EDE00006001EE750260020E525002044260020CE
:10EDF000BD260020E825002000FFFF004C26002053
:10EE0000BC260020AC270020AD270020E4250020F0
:10EE1000602000200826002010B50388112B0AD09E
:10EE20001B2B1BD0102B05D1837D012B02D1828897
:10EE3000104B1A8010BD00210F4A838811700D4AB3
:10EE4000012012889A42F5D1FFF7D6FE0028F1D0B2
:10EE50000A4B1B68002BEDD09847EBE7037A002B99
:10EE6000E8D1074B05211878013003F0B3FAC8B296
:10EE7000EAE7C04646260020AD27002048260020AD
:10EE8000E5250020023810B5012810D8084B1A7863
:10EE9000002A0CD000221A70064B1878FFF7ACFE3F
:10EEA000002804D0044B1B68002B00D0984710BDED
:10EEB00044260020E52500204826002075DF704705
:10EEC00076DF70477ADF70477BDF704713B5164BEC
:10EED0001888164B984211D0154A164C13780133F6
:10EEE000DBB21370217B994209D31349FFF7E6FF88
:10EEF000002803D0A369002B00D0984713BD00233E
:10EF00001370237C002B08D03B21FFF7D9FF00288A
:10EF100003D0A369002B00D098476369002BEDD084
:10EF2000002201A80270E8E7B0270020FFFF0000E0
:10EF300000280020B4270020F827002037B5184B00
:10EF4000184A5B881188184C184D994208D8528885
:10EF50009A4205D36369002B1ED100232B7037BD65
:10EF60002B78002B06D06369002BF6D0002201A875
:10EF700002700DE00E4B1B78002B0BD16168002254
:10EF80000C48FCF757FC0028E7D0A369002BE4D01D
:10EF90009847E2E7A168F2E701A80122E8E7C04646
:10EFA000F0270020F8270020B4270020AE270020FB
:10EFB00000280020D0270020144902000B0070B563
:10EFC00032CA32C332CA32C31268114C1A600022EC
:10EFD000104B01681A70914214D00832200004F0DE
:10EFE000E7FC2000FFF76EFF00280AD10122002174
:10EFF000094B52421A80094B094A0A481970FCF71A
:10F0000001FC70BD2000FFF75FFFEDE7B427002093
:10F01000F8270020AE270020B0270020002800207D
:10F02000CDEE0100643A020010B50388112B2ED0FA
:10F0300002D8102B18D010BD122B3AD0502BFAD179
:10F040001F4CC188E2899142F5D1038A022BF2D18B
:10F05000123000F01DF9002816D11A48FCF736FCD2
:10F060000028E8D0A36920E001008288164B1831FF
:10F070001A801648082204F09BFC0022144B1A70D8
:10F080000F4BDB899342D6D1FFF758FFD3E701221C
:10F090000D4B52421A8000220D4B0A481A70FCF7A1
:10F0A00015FC0028C7D0064B9B69002BC3D098479E
:10F0B000C1E7010008220831044804F079FCE3E7C5
:10F0C000B4270020D0270020B0270020F027002000
:10F0D00000280020F0B5038889B00500112B48D026
:10F0E0001A2B4FD0102B1AD1324C03AE637D227DE8
:10F0F000211D9A433000FDF712FC012332685F1C8A
:10F10000013B9A420DD8207DAF88C043C0B2FDF7C5
:10F11000B9FB294B984210D10420FCF775F809B0CF
:10F12000F0BD002221007B00F35A14310092201D13
:10F130001D32FDF7B7FB3B00E0E72100400020183F
:10F14000261D8780153101233A003000FDF7CEFBE4
:10F1500021003A00143101233000FDF7C7FBAB7DDD
:10F160002100023B5A425341AA88DBB216313000DB
:10F1700005E082880F480023010004301531FDF7B7
:10F18000B5FBCCE70123027A0A4C120993429B415A
:10F190002100261D82885B4217313000FDF7A6FB57
:10F1A00002232A7A2100120993429B4118315B42C3
:10F1B000AA88DCE704280020FFFF000070B50A4C95
:10F1C0000200251D0600217D2800FDF796FB0300A7
:10F1D0000020834207D0A17D32002800FDF78DFB7F
:10F1E000431E9841013070BD0428002010B5020074
:10F1F0000248C17D0430FDF780FB10BD04280020CB
:10F2000010B502000248017E0430FDF776FB10BD08
:10F210000428002010B5040003490A7D0431FDF7DD
:10F220007EFB200010BDC0460428002070B50124DC
:10F230008C40064B02001D680020254204D059185E
:10F24000497E181DFDF759FB70BDC04604280020FB
:10F2500070B501258D40064C130022682A4206D065
:10F2600019316118043402002000FDF73FFB70BD26
:10F27000042800200122824010B5044B00211C68A4
:10F28000144201D01B18597E080010BD042800202C
:10F2900001230078184070470B7803704B78437057
:10F2A0000220704770B5040008000D0004F09CFBBC
:10F2B0006560208070BD10B501F020FB10BD00001E
:10F2C0007FB5040000F008FA01220500112816D0CD
:10F2D0000FD801AE002818D007230C2816D0092318
:10F2E00001AE2000337000F051FBB4807080B56037
:10F2F00012E0862812D0104B00229842EFD10F4B1B
:10F3000020001978FFF7A4FF7FBD01232000337090
:10F31000B48000F03BFB7080300008E0082301ADB2
:10F3200020002B70AC8000F031FB68802800FFF7D4
:10F33000C2FF0022E3E7C046023000003928002067
:10F340007FB51D4B040098421DD000F009FA05005E
:10F350000B2823D00BD8002816D0092301AE20009B
:10F36000337000F013FBB4807080B56014E00122AC
:10F37000112803D0114B00229842EED1104B2000EF
:10F380001978FFF765FF7FBD022301AE20003370BF
:10F3900000F0FCFAB4807080300008E0032301AD77
:10F3A00020002B7000F0F2FA68802800AC80FFF794
:10F3B00082FF0022E2E7C046FFFF000002300000AB
:10F3C00038280020F0B5374E8BB03078FFF752FF69
:10F3D00000280AD005A8FFF71DFF05AB0193002305
:10F3E0000093009B059A934201D30BB0F0BD019BA3
:10F3F00031789C882000FFF719FF051E31D02A4B79
:10F4000020001978FFF712FF071E2AD1200000F014
:10F41000F5F908283AD011D8002829D0062835D087
:10F42000092202AB049020001A709C8000F0AEFA12
:10F4300002AB58801800FFF73EFF07E01B4B9842D5
:10F4400004D01B4B984228D01128E9D131782A00EA
:10F450002000FFF7FDFE144B3A0019782000FFF75B
:10F46000F7FE009B01330093019B02330193B8E741
:10F47000052202AB20001A7000F088FA02AB588017
:10F4800018009C802F00FFF716FFDFE7200000F038
:10F490007DFA00F0C9F90025D8E72000FFF750FFFA
:10F4A000D4E7C0463A2800203B2800200230000064
:10F4B000013400001FB504004088227801AB588059
:10F4C000012A0FD051B2002902D0022A11D01FBD4B
:10F4D00018001970FFF7EFFE608800F07DFAFFF763
:10F4E0002FFFF4E71A70A28818009A80FFF7E3FE56
:10F4F000EDE72379002BEAD000F06EFA054B984235
:10F50000E5D0054B01221978FFF7A2FEFFF75AFF5D
:10F51000DDE7C046FFFF00003A28002070B50578FF
:10F520000400012D0DD14088FFF70AFF608800F02C
:10F5300057F9002805D0034B608819782A00FFF797
:10F5400087FE70BD3A28002010B50378072B02D142
:10F550004088FFF7B5FE10BDF0B503888BB00400FE
:10F56000522B11D0542B34D0502B10D1027B012AB6
:10F570000DD1827A012A0AD12E4A0389934206D1FB
:10F580008088FFF79DFE02E08088FFF7D9FE2A4EB3
:10F590003078FFF76FFE002808D005A8FFF73AFE85
:10F5A000002405AD059B01939C4229D3234E30785E
:10F5B000FFF760FE002808D005A8FFF72BFE002407
:10F5C00005AD059B01939C4227D3FFF7FBFE0BB0D3
:10F5D000F0BD062302AA1370808800F0D7F902ABB1
:10F5E0005880A38802AA938000F01EF9144BA088CB
:10F5F00019780022FFF72CFE02A8FFF75CFEC6E791
:10F60000AF8831783800FFF711FE002802D03800AB
:10F61000FFF796FE01340235C4E7AF883178380031
:10F62000FFF704FE002802D03800FFF749FE01343E
:10F630000235C6E7022900003828002039280020BA
:10F640003A280020A7DF7047A9DF7047AADF70477C
:10F6500037B56C4622000A4B0A4D03CB03C22888FB
:10F660000022210000F03AFF2B88074A934201D084
:10F67000112800D137BD180000F028FF2880EFE7DF
:10F68000683A02003C280020FFFF00001FB5037805
:10F690000400012B13D10179012910D1408802AA5D
:10F6A00000F0ECFC00280AD16A460223137063883C
:10F6B00068465380039B1B781371FFF7FBFE044BD6
:10F6C0001A88044B9A4201D0FFF7C2FF1FBDC04603
:10F6D0003C280020FFFF0000F0B585B0009000F04E
:10F6E00055F91D4B0600984233D00122531C9BB2A2
:10F6F0000193082102AB300000F0C6FC051E23D1A7
:10F70000039903230A00009808C20631FFF79EFF01
:10F71000041E07D10821300000F0CCFD04002000B9
:10F7200005B0F0BD01270C2803D02F00052800D11B
:10F730002C000821300000F03DFD002800D00324FB
:10F74000019A002FD2D1EAE70C240728E7D0040061
:10F75000E5E7024CE3E7C046FFFF0000023000008F
:10F76000F0B585B0019000F011F91C4B984218D10A
:10F7700000240325260001272B00220031000198D8
:10F78000FFF762FF042821D0082824D00B281ED1BF
:10F7900002232B4010D1002E11D1002C13D105B023
:10F7A000F0BD02AA082100F069FC0028E0D1039B0B
:10F7B0009E1D9C881D68DEE701250027DCE70325E8
:10F7C0001C001E00F9E703253400F6E71120002F86
:10F7D000E5D10B20E3E70020F9E7C046FFFF00007A
:10F7E00007B500F0D3F86A46012100F047FC00237A
:10F7F000984201D1019B1B7818000EBD70B5060020
:10F80000064D074A2C8830002100FFF71BFF054BEF
:10F81000984202D101342C80F2E770BD3E280020CE
:10F82000FFFF00000330000037B569460A00044BB3
:10F83000083330CB30C2002200F050FE37BDC04646
:10F84000683A02004DDF704710B5040001F0AEF8D1
:10F850002000FFF763FE10BD70B50024074D084B74
:10F8600068881978FFF7E2FC002801D1E0B270BD8A
:10F8700001340C35082CF2D1FF20F8E74228002093
:10F880004028002010B50B4B04001978FFF7CEFC80
:10F890000300FF20002B05D00020074B5A88A2420E
:10F8A00001D1C0B210BD01300C330828F6D1F730B9
:10F8B000F8E7C046402800204228002070B5060026
:10F8C0000D1E02D1FF24200070BD104B9842F9D0CC
:10F8D0000F4B01221978FFF7BBFC3000FFF7D2FF76
:10F8E0000400FF2804D1FFF7B7FF0400FF28E9D088
:10F8F0000C2301216343074A4942D018995246809C
:10F9000007222900043004F053F8DCE7FFFF000071
:10F910004028002042280020020010320378002BEB
:10F9200004D101309042F9D1180070470120FCE762
:10F9300010B5031E0ED00B1E0CD004780A780023DD
:10F94000944207D101310130062204F023F84342EA
:10F950004341DBB2180010BD70B5451C04002800FF
:10F960000E00FFF7D9FF00280FD0711C10222800CD
:10F9700004F010F831000500200011311130FFF7BC
:10F98000D7FF6B425D412843C0B270BD10B5FFF791
:10F9900079FFFF2804D00C234343024A985A10BD34
:10F9A0000148FCE742280020FFFF000010B50C00D2
:10F9B000FFF768FF0523FF2809D00C2148430549BC
:10F9C000072209180431200003F0F2FF0023180079
:10F9D00010BDC0464228002030B500230C24074A41
:10F9E000210059438D5A854202D15218508830BDAA
:10F9F0000133082BF4D10248F9E7C0464228002021
:10FA0000FFFF000030B5037889B00400002B2BD134
:10FA10000179072928D1408802AA00F02FFB00288D
:10FA200022D100F0EDF96B469D1D04AA29000720A4
:10FA300000F0F0F9002817D062882B889A42F2D0A3
:10FA400005990398FFF788FF0028ECD06488200010
:10FA5000FFF7C2FF002206AB1A702A8858801800F0
:10FA60009C80DA80FFF7F0FE09B030BD02880123E8
:10FA7000002A07D1821C0A301378002B04D10132EE
:10FA80008242F9D1180070470123FBE770B50400EA
:10FA90000D00FFF7EBFF00280CD022882B880020F8
:10FAA0009A4207D1A91CA01C082203F073FF43420D
:10FAB0005841C0B270BD000030B587B0050000F0FD
:10FAC0009FF902AB9C1D04AA2100072000F0A2F9B7
:10FAD000002801D10A4809E0059B28001900463199
:10FAE0000193FFF7D3FF002802D0208807B030BD74
:10FAF000059928002A31FFF7C9FF0028E1D0F4E773
:10FB0000FFFF000010B50C00FFF7BCFEFF2803D07C
:10FB10000C234343014A9C5210BDC046422800209A
:10FB200070B50400FFF758FF0500200000F056FBF9
:10FB3000094B04009D420CD000280AD12800FFF791
:10FB4000A1FEFF2805D00C2301214343034A49426B
:10FB50009952200070BDC046FFFF000042280020DF
:10FB600070B58CB015006A4603000E0014000F3308
:10FB700019781170591E013298421BD10D220021B3
:10FB800004A8FBF737FB33782000E3777378A3777B
:10FB9000B3786377FFF756FE2F236B441B782B70E7
:10FBA0002E236B441B786B702D236B441B78AB703A
:10FBB0000CB070BD0B00DBE730B50378040085B0F6
:10FBC0000D000020022B16D1611C032201A803F0B6
:10FBD000EFFE211D032203A803F0EAFE02AA03A9F7
:10FBE0002800FFF7BDFF032202A901A803F0D2FEFF
:10FBF00043425841C0B205B030BD000030B5038863
:10FC00008FB0102B3ED103AC2300043026C826C38E
:10FC100026C826C326C826C306C806C32379032BD5
:10FC200006D000F0EDF82379012B03D9022B32D056
:10FC30001E4D10E06B469D1C01AA2900072000F014
:10FC4000E9F80028F4D0029904A81131FFF770FEFA
:10FC50000028EFD02D88208804A9FFF72FFE134B32
:10FC60009D420FD02088FFF70DFEFF2803D00C2304
:10FC700043430F4A9D52238801A843800123037008
:10FC8000FFF7E2FD0FB030BD029904A80131FFF784
:10FC900093FF0028DED16B469D1C01AA2900072096
:10FCA00000F0B8F80028EFD1C2E7C046FFFF00001F
:10FCB000422800200020704770470300012805D02B
:10FCC000002304220438C0B282425B41180070470E
:10FCD00073B504000E001500002108226846FBF7EA
:10FCE00089FA064B2A00F618E418B1B2A0B26B46A6
:10FCF000FCF704FC002800D0052076BD00C0FFFF03
:10FD000010B500F041FB10BDF0B58BB0082200210A
:10FD100001A8FBF76FFA1B4800F078FC194F0400AC
:10FD2000B84208D0184B01AAC01880B203A9FCF74A
:10FD3000FBFB0A2812D0154E3578002D0CD1BC42A1
:10FD40000AD00127104B3770E01880B2FCF7B2FBE5
:10FD5000082808D10E4B1F700BB0F0BD200000F03A
:10FD6000FBFB2000D8E70028F6D0092206AB1A706A
:10FD70000990F632180035705C801A710895FFF70B
:10FD8000BFFFE9E7FFFF000000C0FFFFAC28002035
:10FD9000AD280020F0B589B001900E0015001F00BD
:10FDA0000724FF280CD80800FFF787FF002807D09A
:10FDB00005AA31000198FFF78BFF002803D0052426
:10FDC000200009B0F0BD03A905A8FCF7D5FA041E70
:10FDD000F5D1039BAE705A882A80002F0BD03B6868
:10FDE000920093420AD80499686803F0E1FD05A8DF
:10FDF000FCF7E6FAE4E7049B6B60F8E70424DFE72E
:10FE000010B5082200210248FBF7F4F910BDC046E6
:10FE1000A428002070B5134B86B00600C0180D0052
:10FE2000140080B2104A03A9FCF773FB002802D02B
:10FE3000002006B070BD01A903A8FCF79DFA0028B8
:10FE4000F6D1019BA6705A8803A82280029A6260AC
:10FE500080229B88D2019B182B80FCF7B1FA0120ED
:10FE6000E7E7C04600C0FFFFA428002070B50400EB
:10FE700080780D00FFF721FF0723002808D0218894
:10FE80002800FCF7BFFA0323092801D8014B1B5CAB
:10FE9000180070BD803A020007B5019001A8FCF778
:10FEA000CBFA002800D003200EBD0000F0B58BB0C7
:10FEB00005000F00019200930724FF2828D88E78B0
:10FEC0003000FFF7FAFE002822D07A6804AC0292D4
:10FED0003A8802AB9A80636001231F4928006A18A0
:10FEE000228072186280310007AA2381FFF7F0FE9A
:10FEF000019B052815D1002B0DD1210007A8FCF787
:10FF0000BDFA0400072824D015D8002819D00324EE
:10FF100020000BB0F0BD01AA210007A8FCF7B4FA3D
:10FF2000EFE7002B02D001A8FCF786FA210007A812
:10FF3000FCF7B4FAE5E7082801D00E28E7D1112430
:10FF4000E6E7009B002BE3D0190007A8FCF7F7FABF
:10FF5000DEE78624DCE7C04600C0FFFF10B502489C
:10FF600000F0DEFA10BDC046FFFF000010B5072309
:10FF7000FF2804D800F0DCFAFFF7C6FE00231800C3
:10FF800010BD10B500F0FAFA10BD10B500F026FB58
:10FF900010BD10B500F03AFB10BD000070B50500B3
:10FFA0000024044BA200D358280001349847052CA4
:10FFB000F7D170BD8C3A020000B50300807801389B
:10FFC000072807D802F082F8070606060607040984
:10FFD00014221A8000BD0122FBE75A689288093278
:10FFE0009208F6E7F0B5002204001420104D03003B
:10FFF00053435B191E88A64212D11800002614270D
:020000022000DC
:1000000083788B420BD001363200072A0BD83B0095
:100010005343EB181888A04207D1181EF0D1F0BD49
:100020000132082AE3D10020F9E70132EDE7C046AA
:10003000C428002070B504000025E368AB420ED848
:1000400001235B422380A3700023FF226360A3602F
:10005000E360238ADB0ADB021343238270BD217C29
:1000600003484919C9B200F0E0FC0135E5E7C04694
:10007000B428002010B5FFF771FF10BD10B50023A4
:10008000FFF788FE10BD0000F0B585B003900F00AB
:10009000150001930E20002B03D0CB1F012B02D99A
:1000A000072005B0F0BD531E072BF9D80398FFF7C2
:1000B00068FF02900028F3D039000398FFF792FF01
:1000C000041E38D0C368AB4241D3EEB2AB4247D82E
:1000D000237C364EFF2B48D12900300000F0BBFCBA
:1000E0002074FF2843D101235B422380A3700023A7
:1000F0006360A360E360238ADB0ADB02184320828B
:100100001120CEE7217C29487118C9B200F08DFC7E
:100110000136F6B2E3689E42F4D301235B422380AA
:10012000A3700023FF226360A360E360238ADB0ADD
:10013000DB0213432382FF211D48FFF753FF040016
:100140001120002CADD0039BA7702380C0E70026B0
:10015000E0E78919C9B2154800F067FC0136F6B22C
:10016000E368217C9E42F4D3B2E700230293E5606A
:10017000217C300000F040FC03000320002B00D164
:100180008FE7019A00209770536050225543019ADF
:10019000ADB2AD081580029A824200D181E7082FE6
:1001A00000D07EE7AD00063D9D807AE7B4280020B0
:1001B000FFFF000070B5FFF715FF0524051E0BD0EB
:1001C0004068002804D0FFF767FE023C002800D1F9
:1001D00000242800FFF72EFF200070BDF8B5002294
:1001E00005001421184F0B005343DB191888A8424F
:1001F0001CD100263400002B0CD099782800FFF782
:10020000D9FF002802D0052800D00324013632008F
:10021000072A10D9002C07D12800FFF7A7FE041EDB
:1002200002D0072800D003242000F8BD0132082A9C
:10023000D9D10023DDE714235343FB181988A942C1
:10024000D9D00132E4E7C046C4280020CB1FF7B55F
:100250000F000724012B29D8FFF7C4FE023C051E1E
:1002600024D000244368A34220D1017C104800F030
:10027000C3FB0822060021006846FAF7BBFF6B4665
:100280009F70A64211D05023EA68684653436A46DD
:100290009BB29B0813800196FFF78EFE291D6846CE
:1002A000FFF7E4FD0400092800D103242000FEBD6F
:1002B000B4280020CB1F73B506000D00012B5DD8BC
:1002C000082200216846FAF795FF6B4629003000A6
:1002D0009D70FFF787FE04000520002C0AD0637C88
:1002E0000020DB0706D4217C254800F085FB002890
:1002F00001D1032076BD5023E268019053436A4642
:100300009BB29B08138095706846FFF755FE23004B
:100310006268083369463000FFF7C8FD0622637C37
:100320001340934203D1174A1368013B136000281E
:1003300007D10722637C93431A000123134363749C
:10034000D8E711280CD10F4A00201368013313603D
:100350000622637C93431A00042313436374C9E7A2
:10036000862809D1074A1368013313600622637C8B
:1003700093431A000223E1E70728BAD10720B9E71F
:10038000B4280020B0280020F0B5050087B0102266
:10039000002102A8FAF72EFF688802AB588029795D
:1003A00000241971FFF71EFE03002878454E092826
:1003B0001AD801F08BFE0505644747686D6F7179A7
:1003C000002B38D05A7CD20735D500241800FFF70F
:1003D00031FE02AB1C702B78013B5A42534102AAFA
:1003E00010001372FFF7DAFD3368002B21D0364E70
:1003F0000025370014236B43FB185B7C5A0703D49A
:100400009B075AD5002C58D0B1783088FFF752FF9F
:10041000002852D014235D437B5B02AA7D195380D0
:10042000AB781371862843D10823137002A8FFF715
:10043000B5FD07B0F0BD012302AA1370AB680193AC
:10044000049318E0002B10D09A68A9688A420CD156
:100450005A7CD10709D531680131316005218A43C1
:1004600001390A435A740024BEE7022302AA13701A
:10047000EB68019305931000FFF790FDF3E703236A
:1004800002AA1370F7E7042302AA1370EB68D6E7F9
:100490000523F5E70623F7E7072302AA10001370E8
:1004A0000124FFF77BFD9FE7EB6801930493DAE7F4
:1004B000092302AA13700490B8E701351436082DF9
:1004C00098D1B6E7B0280020C428002010B5FFF767
:1004D0005CFD10BD10B5FFF75CFD10BD10B513003D
:1004E0000022FFF7E3FC10BD0C4B70B504000800C0
:1004F0009C4209D180256D00290000F016FB040004
:10050000A84208D1054C06E0FF2CFBD8210000F0E2
:10051000D2FA0028F6D0200070BDC046FFFF0000D0
:1005200010B50249FFF7E0FF10BDC0466429002066
:10053000074B10B5040000209C4208D0054920005C
:100540002031FFF7D1FF201A44426041C0B210BDF4
:10055000FFFF00006429002070B50500FF2809D8BE
:10056000054C0100200000F0C5FA200029002030D1
:1005700000F0C0FA70BDC04664290020010010B52B
:100580000020FF2902D8024800F001FB10BDC04640
:1005900064290020010010B50020FF2903D802487B
:1005A000203000F0F4FA10BD642900200A4B70B529
:1005B0000D000024984201D0013084B2FF2C02D9F2
:1005C000054C200070BD2100280000F0E0FA002852
:1005D000F7D10134A4B2F1E7FFFF000070B5094D77
:1005E0002900FFF7E3FF084B0400984201D12000E7
:1005F00070BD2000FFF7CEFF0028F8D029002000B2
:10060000EFE7C04664290020FFFF000010B5024953
:100610002031FFF7CBFF10BD6429002070B5050025
:100620000024064B1B78A34200DC70BD044BA200E3
:10063000D358280098470134F3E7C046BF2900206B
:10064000B029002070B504008CB01422002102A84B
:10065000FAF7D0FD608802AB9880FFF7BDF902ABD6
:1006600058802078092816D801F030FD0517324A45
:10067000535E80159A9E072302AA13702379137282
:100680000023537205930123927A134302AA9372B3
:1006900002A8FFF7C3FF0CB070BD072302AA1370B6
:1006A0002379917A13720023537201220A4302A91B
:1006B0008A723E4AA068116805909942E8D0884243
:1006C000E6D1136002AA9188394A11800593DFE7C9
:1006D000082302AA13702379A068137200235372AF
:1006E000E268059001920692304A11689942CFD093
:1006F0008842CDD12F4913600A68013A0A60E5E7C4
:10070000072302AA13702379137201235372002363
:10071000DCE7082302AA13702379137201235372B2
:10072000A36801930693B3E70923234D02AA13702C
:100730002B78002BACD0214E3000FFF7C7FE040011
:10074000B042A5D1FFF7C6FEA042A1D1002107AC5F
:10075000142220002970FAF74DFD0B23200023708E
:100760000C3BA3806380FFF759FF91E70A2302AA9D
:100770001370A3680493104B1A78002A00D187E7FE
:10078000002107AD142228001970FAF733FD0C235D
:100790002B700D3BAB806B80A3682800AB60E2E759
:1007A000052302AA137073E70623FAE7C429002081
:1007B000BC290020A8290020AC290020FFFF000050
:1007C000F0B5050087B001AC142200212000FAF733
:1007D00011FD28786B88013863800B2800D984E0EC
:1007E00001F074FC21062338485358616A6F728106
:1007F0002F7901263A00511E8A413D491800D2B294
:100800000978013F2670FEF723FD7A427A41394B81
:10081000D2B219786888FEF71BFD6888FFF7B6F832
:10082000A080002E3BD107B0F0BD022222702A79B1
:10083000180051424A41013222722D4A1178012298
:10084000FEF706FD2B4B2A7919786888FEF700FD24
:100850000126E2E703222270264A18001178FEF7EB
:10086000E5FC4342584101302072AB792373AB88D9
:100870006381EDE71E4A18001178FEF7D7FC0028C7
:10088000D1D1022320722370E2E7032323700023D7
:100890002372EAE70723AA882370A280238120001D
:1008A000FFF7BCFEBFE708232370AB88A3800723B4
:1008B0002381AB682361F2E7062323706B68A36092
:1008C000C6E705232370C3E703222270094A1800F4
:1008D0001178FEF7ABFC43425841002301302373EB
:1008E0002072054BC4E70423ECE7002695E7C046D9
:1008F000C0290020A42900200111000030B5050006
:1009000087B001AC142200212000FAF773FC68883C
:10091000A080FFF761F86080287809280AD801F0E4
:10092000D5FB05050E111317190C1B1D072323708A
:10093000013323812000FFF771FE07B030BD0D2386
:100940002370F7E70E23FBE707232370023BF0E752
:100950000F23F5E71023F3E70523F1E706232370C0
:10096000AB68A360AB886380E4E7000010B5074B79
:1009700004001B78002B07D0FFF740F9200000F09F
:1009800037FE2000FEF7E8FD10BDC046BE2900205E
:1009900010B5054B1A780823002A02D0FFF7C0F8DB
:1009A0000300180010BDC046BE29002030B50278F3
:1009B00087B00500002A03D0012A05D007B030BD5A
:1009C000C088FFF7E5FFF9E70A4B01AC19784088CA
:1009D000FEF73EFC142200212000FAF70BFC688889
:1009E0006080FEF7D3FF0023A08020002370FFF774
:1009F00015FEE3E7A429002070B504000D000028CF
:100A000001D1002070BD0368002BFAD04068002897
:100A1000F7D0FF29F5D089B200F0B9F80028F0D05E
:100A2000E36820685D434019ECE770B5051E11D0FE
:100A30000368002B0ED0406800280BD0FF2909D096
:100A40008CB2210000F0A3F8002803D021006868D0
:100A500000F050F870BDF8B506000F00002802D174
:100A6000FF242000F8BD0368002BF9D04368002B59
:100A7000F6D00025FF24B3689D42F1D2A9B2706878
:100A800000F019F8002809D0FF2C00D12C002B1BF6
:100A90000133BB42E5D00135EDB2ECE7FF2C07D1C5
:100AA000FF24F8E721003000FFF7BFFF0134E4B274
:100AB000A542F7D8F4E7F7B50026B04218D00723CF
:100AC0000124CD0819408C4045192B78E4B223420B
